S0200000696E7665727465645F70656E64756C756D5F73656E736F722E73726563E1
S11300000C943E000C9450000C9450000C9450003E
S11300100C9450000C9450000C9450000C9450001C
S11300200C9450000C9450000C9450000C9450000C
S11300300C9450000C9450000C9450000C945000FC
S11300400C9450000C9450000C9450000C945000EC
S11300500C9450000C9450000C9450000C945000DC
S11300600C94B1010C9450000C9450000C9450006A
S11300700C9450000C9450000C94500011241FBE9A
S1130080CFEFD0E1DEBFCDBF21E0A0E0B1E001C001
S11300901D92AB32B207E1F70E9431040C94590669
S11300A00C940000ECE7F0E090819F7390839081C2
S11300B0892B8083808180648083EAE7F0E08081FB
S11300C0806880830895EAE7F0E09081987F9083C8
S11300D09081892B80830895ECE7F0E09081987FEC
S11300E090839081892B80830895EAE7F0E08081F2
S11300F0886080830895EAE7F0E0808180628083ED
S11301000895EAE7F0E08081806480830895109286
S1130110020110920101109200010895CF93DF9320
S11301201F92CDB7DEB760910501709106018091F1
S113013007019091080120E030E04EEF52E40E9464
S11301408605882364F080E090E0ACEFB2E480930D
S1130150050190930601A0930701B09308016091F3
S113016005017091060180910701909108010E9498
S1130170C9046983998180910401892B89838981C8
S11301800E9455040E9487000F90DF91CF9108953B
S1130190CF92DF92EF92FF92CF93DF9320911001E1
S11301A03091110180910E0190910F0182179307F4
S11301B00CF068C080911001909111012EE1289FEC
S11301C0E001299FD00D112460911601709117014F
S11301D080910C0190910D01860F971F99230CF4C7
S11301E00196BC017595679580911D0190911E0142
S11301F0681B790B072E000C880B990B0E94FA04DC
S113020025E93FEB46ED53E30E948B056B017C012E
S1130210BE01DD0F880B990B0E94FA04A701960119
S11302200E945D046B017C0180911601909117017D
S113023020910C0130910D01821B930B24E1289F26
S1130240B001299F700D1124072E000C880B990B07
S11302500E94FA04A70196010E945D040E945306BD
S1130260BC01990F880B990B0E94FA046093050155
S113027070930601809307019093080180E88093AE
S1130280040166C080910E0190910F012EE1289F18
S1130290E001299FD00D1124609114017091150182
S11302A080910A0190910B01860F971F99230CF4FA
S11302B00196BC0175956795809125019091260161
S11302C0681B790B072E000C880B990B0E94FA040B
S11302D025E93FEB46ED53E30E948B056B017C015E
S11302E0BE01DD0F880B990B0E94FA04A701960149
S11302F00E945D046B017C018091140190911501B1
S113030020910A0130910B01821B930B24E1289F59
S1130310B001299F700D1124072E000C880B990B36
S11303200E94FA04A70196010E945D040E945306EC
S1130330BC01990F880B990B0E94FA046093050184
S113034070930601809307019093080110920401B1
S11303500E948E00DF91CF91FF90EF90DF90CF90BD
S113036008951F920F920FB60F9211242F933F936B
S11303704F935F936F937F938F939F93AF93BF93A9
S1130380EF93FF93809178009091790090931901F5
S113039080931801809102018F5F80930201809104
S11303A00201823008F4AEC08091000190910101F5
S11303B0029750F48091000190910101019690936D
S11303C00101809300019EC0809109018F5F809399
S11303D009018091030181114CC0209118013091D1
S11303E019018091120190911301820F931F909330
S11303F0130180931201809109018C3308F482C0A7
S1130400809116019091170190930D0180930C0136
S11304102091120130911301A9E8B8E80E94300636
S113042096958795929582958F7089279F708927D5
S113043090931701809316018091160190911701F2
S113044020911D0130911E01821B930B9093110189
S11304508093100181E00E946C0081E0809303018D
S11304601092090110921301109212010E94C80007
S113047049C0209118013091190180911201909185
S11304801301820F931F90931301809312018091A3
S113049009018C33B8F18091140190911501909366
S11304A00B0180930A012091120130911301A9E8F4
S11304B0B8E80E94300696958795929582958F703C
S11304C089279F7089279093150180931401809147
S11304D01401909115012091250130912601821B70
S11304E0930B90930F0180930E0180E00E946C00A7
S11304F0109203011092090110921301109212013B
S11305000E94C800FF91EF91BF91AF919F918F918D
S11305107F916F915F914F913F912F910F900FBEFB
S11305200F901F901895079BFECF809178009091B3
S1130530790090932201809321012FEF89EF90E0BD
S1130540215080409040E1F700C0000020E030E0FE
S113055080E090E00EC04091780050917900840FC3
S1130560951FEFE1FEE43197F1F700C000002F5F23
S11305703F4F2A3031057CF36AE070E00E941C068C
S1130580709322016093210181E00E946C00FFEFCF
S113059029EF80E0F15020408040E1F700C00000E6
S11305A0809178009091790090932801809327019D
S11305B09FEFE9EFF0E09150E040F040E1F700C038
S11305C0000020E030E080E090E00EC04091780030
S11305D050917900840F951FEFE1FEE43197F1F714
S11305E000C000002F5F3F4F2A3031057CF36AE0E2
S11305F070E00E941C067093280160932701FFEFAE
S113060029EF80E0F15020408040E1F700C0000075
S11306109FEFE9E6F8E19150E040F040E1F700C0D7
S11306200000079BFECF8091780090917900909311
S1130630200180931F012FEF89EF90E0215080402B
S11306409040E1F700C0000020E030E080E090E05E
S11306500EC04091780050917900840F951FEFE10E
S1130660FEE43197F1F700C000002F5F3F4F2A30BE
S113067031057CF36AE070E00E941C06709320014F
S113068060931F0180E00E946C00FFEF29EF80E07F
S1130690F15020408040E1F700C0000080917800D4
S11306A09091790090932A01809329019FEFE9EFBB
S11306B0F0E09150E040F040E1F700C0000020E09D
S11306C030E080E090E00EC04091780050917900D5
S11306D0840F951FEFE1FEE43197F1F700C00000AD
S11306E02F5F3F4F2A3031057CF36AE070E00E94AF
S11306F01C0670932A0160932901FFEF29EF80E023
S1130700F15020408040E1F700C000009FEFE9E68F
S1130710F8E19150E040F040E1F700C00000079B91
S1130720FECF809178009091790090931E01809380
S11307301D012FEF89EF90E0215080409040E1F7B8
S113074000C0000020E030E080E090E00EC0409166
S1130750780050917900840F951FEFE1FEE4319702
S1130760F1F700C000002F5F3F4F2A3031057CF3C2
S11307706AE070E00E941C0670931E0160931D01E4
S113078081E00E946C00FFEF29EF80E0F1502040EF
S11307908040E1F700C000008091780090917900DA
S11307A090932601809325019FEFE9EFF0E09150AB
S11307B0E040F040E1F700C0000020E030E080E0DD
S11307C090E00EC04091780050917900840F951FFD
S11307D0EFE1FEE43197F1F700C000002F5F3F4FD7
S11307E02A3031057CF36AE070E00E941C067093A5
S11307F026016093250180E00E946C00FFEF29EF41
S113080080E0F15020408040E1F700C0000080917A
S11308101D0190911E012091290130912A01821B12
S1130820930B9C0122F422273327281B390B309386
S11308302401209323018091250190912601209188
S1130840270130912801821B930B9C0122F422275B
S11308503327281B390B30931C0120931B017894F8
S1130860089580E00E9452000E9475000E947B005F
S11308700E94810087E00E9463000E944904F8946A
S11308808AB180688AB90E9493028BB180588BB96F
S1130890FCCF88E090E09093C5008093C400E1EC25
S11308A0F0E080818861808308959091C00095FF75
S11308B0FCCF8093C60008955058BB27AA270E94F6
S11308C074040C944C050E943E0538F00E944505C2
S11308D020F039F49F3F19F426F40C943B050EF4F0
S11308E0E095E7FB0C943505E92F0E945D0558F36C
S11308F0BA17620773078407950720F079F4A6F501
S11309000C947F050EF4E0950B2EBA2FA02D0B014D
S1130910B90190010C01CA01A0011124FF27591B40
S113092099F0593F50F4503E68F11A16F040A22F46
S1130930232F342F4427585FF3CF469537952795B7
S1130940A795F0405395C9F77EF41F16BA0B620BB6
S1130950730B840BBAF09150A1F0FF0FBB1F661FFD
S1130960771F881FC2F70EC0BA0F621F731F841F40
S113097048F4879577956795B795F7959E3F08F066
S1130980B0CF9395880F08F09927EE0F9795879528
S113099008950E94650588F09F5798F0B92F99270C
S11309A0B751B0F0E1F0660F771F881F991F1AF056
S11309B0BA95C9F714C0B13091F00E947F05B1E037
S11309C008950C947F05672F782F8827B85F39F036
S11309D0B93FCCF3869577956795B395D9F73EF4EF
S11309E090958095709561957F4F8F4F9F4F089597
S11309F0E89409C097FB3EF49095809570956195B5
S1130A007F4F8F4F9F4F9923A9F0F92F96E9BB276A
S1130A109395F695879577956795B795F111F8CFE6
S1130A20FAF4BB0F11F460FF1BC06F5F7F4F8F4F51
S1130A309F4F16C0882311F096E911C0772321F047
S1130A409EE8872F762F05C0662371F096E8862FDF
S1130A5070E060E02AF09A95660F771F881FDAF736
S1130A60880F9695879597F9089597F99F6780E879
S1130A7070E060E008959FEF80EC089500240A94EC
S1130A801616170618060906089500240A94121665
S1130A901306140605060895092E0394000C11F498
S1130AA0882352F0BB0F40F4BF2B11F460FF04C045
S1130AB06F5F7F4F8F4F9F4F089557FD9058440F9E
S1130AC0551F59F05F3F71F04795880F97FB991FA9
S1130AD061F09F3F79F08795089512161306140666
S1130AE0551FF2CF4695F1DF08C0161617061806F3
S1130AF0991FF1CF86957105610508940895E894CE
S1130B00BB2766277727CB0197F908950E94F8053C
S1130B1008F48FEF08950E949E050C944C050E94E2
S1130B203E0538F00E94450520F0952311F00C9401
S1130B3035050C943B0511240C9480050E945D0539
S1130B4070F3959FC1F3950F50E0551F629FF0011C
S1130B50729FBB27F00DB11D639FAA27F00DB11D35
S1130B60AA1F649F6627B00DA11D661F829F2227BE
S1130B70B00DA11D621F739FB00DA11D621F839F45
S1130B80A00D611D221F749F3327A00D611D231F1B
S1130B90849F600D211D822F762F6A2F11249F5769
S1130BA050409AF0F1F088234AF0EE0FFF1FBB1F6C
S1130BB0661F771F881F91505040A9F79E3F51052B
S1130BC080F00C9435050C9480055F3FE4F3983E67
S1130BD0D4F3869577956795B795F795E7959F5FD5
S1130BE0C1F7FE2B880F911D9695879597F9089567
S1130BF0990F0008550FAA0BE0E8FEEF161617062A
S1130C00E807F907C0F012161306E407F50798F091
S1130C10621B730B840B950B39F40A2661F0232BAA
S1130C20242B252B21F408950A2609F4A140A69526
S1130C308FEF811D811D089597FB072E16F40094F4
S1130C4007D077FD09D00E943F0607FC05D03EF48B
S1130C50909581959F4F0895709561957F4F089564
S1130C60A29FB001B39FC001A39F700D811D1124E9
S1130C70911DB29F700D811D1124911D0895AA1B11
S1130C80BB1B51E107C0AA1FBB1FA617B70710F073
S1130C90A61BB70B881F991F5A95A9F780959095A5
S1130CA0BC01CD01089597FF03C0919581959109E9
S1090CB00895F894FFCF43
S9030000FC
