S0200000696E7665727465645F70656E64756C756D5F73656E736F722E73726563E1
S11300000C943E000C9450000C9450000C9450003E
S11300100C9450000C9450000C9450000C9450001C
S11300200C9450000C9450000C9450000C9450000C
S11300300C9450000C9450000C9450000C945000FC
S11300400C9450000C9450000C9450000C945000EC
S11300500C9450000C9450000C9450000C945000DC
S11300600C9491000C9450000C9450000C9450008B
S11300700C9450000C9450000C94500011241FBE9A
S1130080CFEFD0E1DEBFCDBF21E0A0E0B1E001C001
S11300901D92A830B207E1F70E947E000C94EC0098
S11300A00C940000ECE7F0E090819F7390839081C2
S11300B0892B8083808180648083EAE7F0E08081FB
S11300C0806880830895EAE7F0E09081987F9083C8
S11300D09081892B80830895EAE7F0E0808188602D
S11300E080830895EAE7F0E0808180628083089548
S11300F0EAE7F0E0808180648083089580E00E94D4
S113010052000E946C000E9472000E94780085E0F8
S11301100E9463000E94E0008AB180688AB97894E2
S1130120FFCF1F920F920FB60F9211242F933F937C
S11301308F939F938091790090E0982F8827209146
S11301407800822B9093070180930601809100012F
S11301508F5F809300018BB180588BB9809100012F
S1130160823029F580910101811110C081E08093D2
S1130170010120910601309107018CEB92E0821B72
S1130180930B90930501809304010FC081E0809349
S1130190010120910601309107018CEB92E0821B52
S11301A0930B9093030180930201109200019F919D
S11301B08F913F912F910F900FBE0F901F90189524
S11301C083E390E09093C5008093C400E1ECF0E0F9
S10F01D08081886180830895F894FFCF3B
S9030000FC
