S0200000696E7665727465645F70656E64756C756D5F73656E736F722E73726563E1
S11300000C943E000C9450000C9450000C9450003E
S11300100C9450000C9450000C9450000C9450001C
S11300200C9450000C9450000C9450000C9450000C
S11300300C9450000C9450000C9450000C945000FC
S11300400C9450000C9450000C9450000C945000EC
S11300500C9450000C9450000C9450000C945000DC
S11300600C9422010C9450000C9450000C945000F9
S11300700C9450000C9450000C94500011241FBE9A
S1130080CFEFD0E1DEBFCDBF21E0A0E0B1E001C001
S11300901D92A731B207E1F70E9487000C94580320
S11300A00C940000ECE7F0E090819F7390839081C2
S11300B0892B8083808180648083EAE7F0E08081FB
S11300C0806880830895EAE7F0E09081987F9083C8
S11300D09081892B80830895ECE7F0E09081987FEC
S11300E090839081892B80830895EAE7F0E08081F2
S11300F0886080830895EAE7F0E0808180628083ED
S11301000895EAE7F0E0808180648083089580E0C8
S11301100E9452000E9475000E947B000E94810090
S113012087E00E9463000E94EC0178948AB18068A1
S11301308AB9FFCFCF93DF931F92CDB7DEB78091FB
S113014004019091050167E070E00E943003698327
S11301508981880F880F8983998180910301892B74
S1130160898389810E94F8010F90DF91CF910895CE
S11301702091130130911401809111019091120189
S1130180821793077CF5809113019091140180915B
S1130190090190910A0180911301909114018091B9
S11301A0090190910A0160910D0170910E01072ED1
S11301B0000C880B990B0E94A40220E030E0A901F6
S11301C00E94000220E030E0A9010E940002905841
S11301D00E946C02709305016093040180E880938F
S11301E003012DC0809111019091120180910701AA
S11301F09091080180911101909112018091070161
S11302009091080160910B0170910C01072E000C74
S1130210880B990B0E94A40220E030E0A9010E94FF
S1130220000220E030E0A9010E94000290580E94E0
S11302306C027093050160930401109203010E9403
S11302409A0008951F920F920FB60F9211242F93C4
S11302503F934F935F936F937F938F939F93AF934A
S1130260BF93EF93FF9380917800909179009093DE
S1130270160180931501809101018F5F8093010124
S113028080910101823009F096C0809106018F5F50
S11302908093060180910201811140C08091060182
S11302A0853178F4209115013091160180910F0168
S11302B090911001820F931F9093100180930F016E
S11302C06BC0809113019091140190930A01809363
S11302D0090180910F019091100164E170E00E9486
S11302E03003709314016093130120911301309132
S11302F014018AEB92E0821B930B90930E0180937E
S11303000D0181E00E946C0081E080930201109253
S113031006011092100110920F013EC08091060157
S1130320853178F4209115013091160180910F01E7
S113033090911001820F931F9093100180930F01ED
S11303402BC0809111019091120190930801809328
S1130350070180910F019091100164E170E00E9407
S113036030037093120160931101209111013091B7
S1130370120188EC92E0821B930B90930C01809302
S11303800B0180E00E946C001092020110920601A1
S11303901092100110920F0110920101809100013E
S11303A08F5F80930001809100018A3F21F41092B5
S11303B000010E94B800FF91EF91BF91AF919F910E
S11303C08F917F916F915F914F913F912F910F90FA
S11303D00FBE0F901F90189587E690E09093C5008C
S11303E08093C400E1ECF0E080818861808308950B
S11303F09091C00095FFFCCF8093C600089550589B
S1130400BB27AA270E9417020C94F6020E94E80256
S113041038F00E94EF0220F039F49F3F19F426F4DB
S11304200C94E5020EF4E095E7FB0C94DF02E92F4F
S11304300E94070358F3BA176207730784079507E6
S113044020F079F4A6F50C9429030EF4E0950B2E14
S1130450BA2FA02D0B01B90190010C01CA01A00112
S11304601124FF27591B99F0593F50F4503E68F16D
S11304701A16F040A22F232F342F4427585FF3CFAE
S1130480469537952795A795F0405395C9F77EF47F
S11304901F16BA0B620B730B840BBAF09150A1F0C8
S11304A0FF0FBB1F661F771F881FC2F70EC0BA0F4E
S11304B0621F731F841F48F4879577956795B795D6
S11304C0F7959E3F08F0B0CF9395880F08F09927D1
S11304D0EE0F9795879508950E9473026894B11161
S11304E00C942A0308950E940F0388F09F5798F0F4
S11304F0B92F9927B751B0F0E1F0660F771F881F25
S1130500991F1AF0BA95C9F714C0B13091F00E943E
S11305102903B1E008950C942903672F782F8827C5
S1130520B85F39F0B93FCCF3869577956795B39565
S1130530D9F73EF490958095709561957F4F8F4FD4
S11305409F4F0895E89409C097FB3EF490958095D9
S1130550709561957F4F8F4F9F4F9923A9F0F92F85
S113056096E9BB279395F695879577956795B79503
S1130570F111F8CFFAF4BB0F11F460FF1BC06F5FE9
S11305807F4F8F4F9F4F16C0882311F096E911C0FB
S1130590772321F09EE8872F762F05C0662371F01C
S11305A096E8862F70E060E02AF09A95660F771F30
S11305B0881FDAF7880F9695879597F9089597F924
S11305C09F6780E870E060E008959FEF80EC0895F5
S11305D000240A941616170618060906089500241E
S11305E00A9412161306140605060895092E039498
S11305F0000C11F4882352F0BB0F40F4BF2B11F40C
S113060060FF04C06F5F7F4F8F4F9F4F089557FD6A
S11306109058440F551F59F05F3F71F04795880F6C
S113062097FB991F61F09F3F79F087950895121603
S113063013061406551FF2CF4695F1DF08C01616AF
S113064017061806991FF1CF869571056105089460
S11306500895E894BB2766277727CB0197F9089577
S113066097FB072E16F4009407D077FD09D00E945B
S1130670440307FC05D03EF4909581959F4F08955F
S1130680709561957F4F0895AA1BBB1B51E107C06C
S1130690AA1FBB1FA617B70710F0A61BB70B881F0E
S11306A0991F5A95A9F780959095BC01CD0108959D
S10706B0F894FFCFE8
S9030000FC
