S0200000696E7665727465645F70656E64756C756D5F73656E736F722E73726563E1
S11300000C943E000C9450000C9450000C9450003E
S11300100C9450000C9450000C9450000C9450001C
S11300200C9450000C9450000C9450000C9450000C
S11300300C9450000C9450000C9450000C945000FC
S11300400C9450000C9450000C9450000C945000EC
S11300500C9450000C9450000C9450000C945000DC
S11300600C940D010C9450000C9450000C9450000E
S11300700C9450000C9450000C94500011241FBE9A
S1130080CFEFD0E1DEBFCDBF21E0A0E0B1E001C001
S11300901D92AA32B207E1F70E94DD020C94D50347
S11300A00C940000ECE7F0E090819F7390839081C2
S11300B0892B8083808180648083EAE7F0E08081FB
S11300C0806880830895EAE7F0E09081987F9083C8
S11300D09081892B80830895ECE7F0E09081987FEC
S11300E090839081892B80830895EAE7F0E08081F2
S11300F0886080830895EAE7F0E0808180628083ED
S11301000895EAE7F0E08081806480830895CF93C6
S1130110DF931F92CDB7DEB76091050170910601A0
S1130120809107019091080120E030E04EEF52E405
S11301300E949D03882364F080E090E0ACEFB2E479
S11301408093050190930601A0930701B0930801E1
S11301506091050170910601809107019091080159
S11301600E9408036983998180910401892B898302
S113017089810E94010310920201109201011092E0
S113018000010F90DF91CF910895209116013091D5
S11301901701809114019091150182179307F4F4CB
S11301A08091100190911101BC01660F771F96FF99
S11301B003C0719561957109072E000C880B990B8A
S11301C00E9439036093050170930601809307012F
S11301D09093080180E8809304011CC080910E0173
S11301E090910F01BC01660F771F96FF03C07195B4
S11301F061957109072E000C880B990B0E94390335
S113020060930501709306018093070190930801A0
S1130210109204010E94870008951F920F920FB656
S11302200F9211242F933F934F935F936F937F9378
S11302308F939F93AF93BF93EF93FF938091780035
S11302409091790090931901809318018091020193
S11302508F5F8093020180910201823008F4B1C063
S113026080910001909101018D3B924050F4809166
S11302700001909101010196909301018093000186
S1130280A0C0809109018F5F8093090180910301CF
S113029081114AC0209118013091190180911201F5
S11302A090911301820F931F909313018093120175
S11302B0809109018A3008F484C0809116019091DC
S11302C0170190930D0180930C012091120130913C
S11302D01301ADECBCEC0E94C603969587959695E8
S11302E08795969587959093170180931601809131
S11302F016019091170120911C0130911D01821B60
S1130300930B909311018093100181E00E946C0083
S113031081E080930301109209011092130110925D
S113032012010E94C5004DC020911801309119019D
S11303308091120190911301820F931F90931301E6
S113034080931201809109018A30D8F180911401BF
S11303509091150190930B0180930A012091120151
S113036030911301ADECBCEC0E94C60396958795C1
S1130370969587959695879590931501809314018A
S1130380209114013091150180912401909125014F
S1130390821B930B9C0122F422273327281B390B41
S11303A030930F0120930E0180E00E946C001092A4
S11303B003011092090110921301109212010E947C
S11303C0C500FF91EF91BF91AF919F918F917F9164
S11303D06F915F914F913F912F910F900FBE0F90AE
S11303E01F901895CF93DF93079BFECFC8E7D0E00B
S11303F08881998190932101809320012FE788E3DC
S113040091E0215080409040E1F700C000008881D5
S11304109981909321018093200181E00E946C00D6
S11304202FE788E391E0215080409040E1F700C03D
S113043000008881998190932701809326012FE7FA
S113044088E391E0215080409040E1F700C0000033
S11304508881998190932701809326012FEF84E36B
S11304609CE0215080409040E1F700C00000079BD1
S1130470FECFC8E7D0E08881998190931F018093D3
S11304801E012FE788E391E0215080409040E1F77E
S113049000C000008881998190931F0180931E0100
S11304A080E00E946C002FE788E391E021508040B7
S11304B09040E1F700C00000888199819093290160
S11304C0809328012FE788E391E0215080409040F9
S11304D0E1F700C0000088819981909329018093FD
S11304E028012FEF84E39CE0215080409040E1F705
S11304F000C00000079BFECFC8E7D0E08881998147
S113050090931D0180931C012FE788E391E0215013
S113051080409040E1F700C0000088819981909369
S11305201D0180931C0181E00E946C002FE788E389
S113053091E0215080409040E1F700C000008881A4
S1130540998190932501809324012FE788E391E01A
S1130550215080409040E1F700C0000088819981DB
S113056090932501809324012FE788E391E02150A3
S113057080409040E1F700C0000080E00E946C00E1
S113058020911C0130911D01809128019091290135
S1130590281B390BC901992324F488279927821B26
S11305A0930B909323018093220190931B018093DA
S11305B01A017894DF91CF91089580E00E9452004F
S11305C00E9475000E947B000E94810087E00E94C7
S11305D063000E94F502F8948AB180688AB90E9487
S11305E0F2018BB180588BB9FCCF87E690E09093F1
S11305F0C5008093C400E1ECF0E0808188618083D1
S113060008959091C00095FFFCCF8093C600089593
S11306100E947C0388F09F5798F0B92F9927B7510F
S1130620B0F0E1F0660F771F881F991F1AF0BA9592
S1130630C9F714C0B13091F00E949603B1E0089557
S11306400C949603672F782F8827B85F39F0B93F49
S1130650CCF3869577956795B395D9F73EF4909545
S11306608095709561957F4F8F4F9F4F0895E894C3
S113067009C097FB3EF490958095709561957F4FE6
S11306808F4F9F4F9923A9F0F92F96E9BB27939594
S1130690F695879577956795B795F111F8CFFAF4A4
S11306A0BB0F11F460FF1BC06F5F7F4F8F4F9F4FD5
S11306B016C0882311F096E911C0772321F09EE833
S11306C0872F762F05C0662371F096E8862F70E099
S11306D060E02AF09A95660F771F881FDAF7880F73
S11306E09695879597F9089557FD9058440F551F8F
S11306F059F05F3F71F04795880F97FB991F61F0A0
S11307009F3F79F087950895121613061406551F16
S1130710F2CF4695F1DF08C0161617061806991F82
S1130720F1CF86957105610508940895E894BB2777
S113073066277727CB0197F908950E94A20308F44E
S11307408FEF0895990F0008550FAA0BE0E8FEEF0C
S113075016161706E807F907C0F012161306E40781
S1130760F50798F0621B730B840B950B39F40A267A
S113077061F0232B242B252B21F408950A2609F458
S1130780A140A6958FEF811D811D0895A29FB00100
S1130790B39FC001A39F700D811D1124911DB29FB1
S11107A0700D811D1124911D0895F894FFCF52
S9030000FC
