S0200000696E7665727465645F70656E64756C756D5F73656E736F722E73726563E1
S11300000C943E000C9450000C9450000C9450003E
S11300100C9450000C9450000C9450000C9450001C
S11300200C9450000C9450000C9450000C9450000C
S11300300C9450000C9450000C9450000C945000FC
S11300400C9450000C9450000C9450000C945000EC
S11300500C9450000C9450000C9450000C945000DC
S11300600C9406010C9450000C9450000C94500015
S11300700C9450000C9450000C94500011241FBE9A
S1130080CFEFD0E1DEBFCDBF21E0A0E0B1E001C001
S11300901D92A231B207E1F70E9487000C94C302BB
S11300A00C940000ECE7F0E090819F7390839081C2
S11300B0892B8083808180648083EAE7F0E08081FB
S11300C0806880830895EAE7F0E09081987F9083C8
S11300D09081892B80830895ECE7F0E09081987FEC
S11300E090839081892B80830895EAE7F0E08081F2
S11300F0886080830895EAE7F0E0808180628083ED
S11301000895EAE7F0E0808180648083089580E0C8
S11301100E9452000E9475000E947B000E94810090
S113012087E00E9463000E94860178948AB1806807
S11301308AB9FFCF20910E0130910F0180910C01FB
S113014090910D01821793077CF580910E01909197
S11301500F01809106019091070180910E01909109
S11301600F01809106019091070160910A0170913D
S11301700B01072E000C880B990B0E94370220E01C
S113018030E0A9010E94930120E030E0A9010E941F
S1130190930190580E94FF01709303016093020140
S11301A08BB180588BB92EC080910C0190910D01B8
S11301B0809104019091050180910C0190910D01B1
S11301C080910401909105016091080170910901E9
S11301D0072E000C880B990B0E94370220E030E0B8
S11301E0A9010E94930120E030E0A9010E9493013B
S11301F090580E94FF0170930301609302018BB138
S113020080588BB960E070E0CB0108951F920F9283
S11302100FB60F9211242F933F934F935F936F93D5
S11302207F938F939F93AF93BF93EF93FF938091AB
S1130230780090917900909311018093100180913E
S113024000018F5F8093000180910001823009F0EA
S11302504CC080910101811123C080910E019091C5
S11302600F019093070180930601809110019091F2
S1130270110190930F0180930E0120911001309190
S113028011018CEB92E0821B930B90930B018093F2
S11302900A0181E00E946C0081E08093010121C089
S11302A080910C0190910D019093050180930401BC
S11302B0809110019091110190930D0180930C0194
S11302C020911001309111018CEB92E0821B930B71
S11302D0909309018093080180E00E946C001092C1
S11302E00101109200010E949A00FF91EF91BF91C9
S11302F0AF919F918F917F916F915F914F913F91BA
S11303002F910F900FBE0F901F90189587E690E0E5
S11303109093C5008093C400E1ECF0E08081886193
S1130320808308955058BB27AA270E94AA010C94E1
S113033089020E947B0238F00E94820220F039F484
S11303409F3F19F426F40C9478020EF4E095E7FB31
S11303500C947202E92F0E949A0258F3BA176207AA
S113036073078407950720F079F4A6F50C94BC0272
S11303700EF4E0950B2EBA2FA02D0B01B9019001BC
S11303800C01CA01A0011124FF27591B99F0593F00
S113039050F4503E68F11A16F040A22F232F342F48
S11303A04427585FF3CF469537952795A795F04096
S11303B05395C9F77EF41F16BA0B620B730B840BAB
S11303C0BAF09150A1F0FF0FBB1F661F771F881F63
S11303D0C2F70EC0BA0F621F731F841F48F48795BB
S11303E077956795B795F7959E3F08F0B0CF9395AD
S11303F0880F08F09927EE0F9795879508950E9426
S113040006026894B1110C94BD0208950E94A202E0
S113041088F09F5798F0B92F9927B751B0F0E1F0C1
S1130420660F771F881F991F1AF0BA95C9F714C071
S1130430B13091F00E94BC02B1E008950C94BC026A
S1130440672F782F8827B85F39F0B93FCCF38695AA
S113045077956795B395D9F73EF490958095709507
S113046061957F4F8F4F9F4F0895E89409C097FB84
S11304703EF490958095709561957F4F8F4F9F4F77
S11304809923A9F0F92F96E9BB279395F6958795BB
S113049077956795B795F111F8CFFAF4BB0F11F47E
S11304A060FF1BC06F5F7F4F8F4F9F4F16C0882325
S11304B011F096E911C0772321F09EE8872F762F5B
S11304C005C0662371F096E8862F70E060E02AF09C
S11304D09A95660F771F881FDAF7880F9695879588
S11304E097F9089597F99F6780E870E060E00895B0
S11304F09FEF80EC089500240A9416161706180638
S11305000906089500240A94121613061406050613
S11305100895092E0394000C11F4882352F0BB0FA4
S113052040F4BF2B11F460FF04C06F5F7F4F8F4F07
S11305309F4F089557FD9058440F551F59F05F3F42
S113054071F04795880F97FB991F61F09F3F79F0F1
S113055087950895121613061406551FF2CF469573
S1130560F1DF08C0161617061806991FF1CF8695F5
S11305707105610508940895E894BB2766277727D9
S10D0580CB0197F90895F894FFCF1A
S9030000FC
