S0200000696E7665727465645F70656E64756C756D5F73656E736F722E73726563E1
S11300000C943E000C9450000C9450000C9450003E
S11300100C9450000C9450000C9450000C9450001C
S11300200C9450000C9450000C9450000C9450000C
S11300300C9450000C9450000C9450000C945000FC
S11300400C9450000C9450000C9450000C945000EC
S11300500C9450000C9450000C9450000C945000DC
S11300600C9476010C9450000C9450000C945000A5
S11300700C9450000C9450000C94500011241FBE9A
S1130080CFEFD0E1DEBFCDBF21E0A0E0B1E001C001
S11300901D92AB32B207E1F70E94F3030C941305EF
S11300A00C940000ECE7F0E090819F7390839081C2
S11300B0892B8083808180648083EAE7F0E08081FB
S11300C0806880830895EAE7F0E09081987F9083C8
S11300D09081892B80830895ECE7F0E09081987FEC
S11300E090839081892B80830895EAE7F0E08081F2
S11300F0886080830895EAE7F0E0808180628083ED
S11301000895EAE7F0E08081806480830895109286
S1130110020110920101109200010895CF93DF9320
S11301201F92CDB7DEB760910501709106018091F1
S113013007019091080120E030E04EEF52E40E9464
S1130140B304882364F080E090E0ACEFB2E48093E1
S1130150050190930601A0930701B09308016091F3
S113016005017091060180910701909108010E9498
S11301701E046983998180910401892B8983898173
S11301800E9417040E9487000F90DF91CF91089579
S1130190209110013091110180910E0190910F0175
S11301A02817390771F080911001909111011816E8
S11301B01906D4F080910E0190910F0118161906BA
S11301C09CF0109211011092100110920F011092E4
S11301D00E0110920501109206011092070110926F
S11301E008010E948E0008952091100130911101A0
S11301F080910E0190910F0182179307DCF5809195
S113020016019091170180910C0190910D0180913C
S113021010019091110121E1289FB001299F700DD7
S11302201124209116013091170180910C019091B5
S11302300D01281B390B49E1429FC001439F900DDA
S11302401124680F791F77231CF471956195710946
S1130250072E000C880B990B0E944F046093050134
S113026070930601809307019093080180E88093BE
S1130270040139C0809116019091170180910C01FD
S113028090910D0180910E0190910F0121E1289F21
S1130290B001299F700D1124209114013091150192
S11302A080910A0190910B01281B390B49E1429F6F
S11302B0C001439F900D1124680F791F77231CF40C
S11302C0719561957109072E000C880B990B0E949A
S11302D04F04609305017093060180930701909386
S11302E00801109204010E948E0008951F920F923B
S11302F00FB60F9211242F933F934F935F936F93F5
S11303007F938F939F93AF93BF93EF93FF938091CA
S1130310780090917900909319018093180180914D
S113032002018F5F8093020180910201823008F400
S1130330ABC080910001909101018139914050F44A
S113034080910001909101010196909301018093A5
S113035000019AC0809109018F5F80930901809107
S1130360030181114AC02091180130911901809133
S1130370120190911301820F931F909313018093A4
S1130380120180910901843108F47EC08091160124
S11303909091170190930D0180930C01209112010B
S11303A030911301ADECBCEC0E94F004929582955F
S11303B08F7089279F708927909317018093160166
S11303C0809116019091170120911D0130911E0119
S11303D0821B930B909311018093100181E00E9482
S11303E06C0081E0809303011092090110921301C3
S11303F0109212010E94C80047C020911801309148
S113040019018091120190911301820F931F90930F
S1130410130180931201809109018431A8F1809124
S113042014019091150190930B0180930A0120917E
S1130430120130911301ADECBCEC0E94F0049295D2
S113044082958F7089279F708927909315018093D7
S1130450140180911401909115012091250130918E
S11304602601821B930B90930F0180930E0180E071
S11304700E946C0010920301109209011092130162
S1130480109212010E94C800FF91EF91BF91AF91A9
S11304909F918F917F916F915F914F913F912F9198
S11304A00F900FBE0F901F901895079BFECF809161
S11304B078009091790090932201809321012FEF8D
S11304C089EF90E0215080409040E1F700C00000A7
S11304D020E030E080E090E00EC040917800509140
S11304E07900840F951FEFE1FEE43197F1F700C026
S11304F000002F5F3F4F2A3031057CF36AE070E043
S11305000E94DC04709322016093210181E00E9427
S11305106C00FFEF29EF80E0F15020408040E1F7CC
S113052000C0000080917800909179009093280198
S1130530809327019FEFE9EFF0E09150E040F04015
S1130540E1F700C0000020E030E080E090E00EC061
S11305504091780050917900840F951FEFE1FEE4FB
S11305603197F1F700C000002F5F3F4F2A3031056B
S11305707CF36AE070E00E94DC04709328016093CD
S11305802701FFEF29EF80E0F15020408040E1F7A0
S113059000C000009FEFE9E6F8E19150E040F04030
S11305A0E1F700C00000079BFECF80917800909196
S11305B079009093200180931F012FEF89EF90E041
S11305C0215080409040E1F700C0000020E030E07E
S11305D080E090E00EC04091780050917900840F43
S11305E0951FEFE1FEE43197F1F700C000002F5FA3
S11305F03F4F2A3031057CF36AE070E00E94DC044E
S11306007093200160931F0180E00E946C00FFEF53
S113061029EF80E0F15020408040E1F700C0000065
S1130620809178009091790090932A018093290118
S11306309FEFE9EFF0E09150E040F040E1F700C0B7
S1130640000020E030E080E090E00EC040917800AF
S113065050917900840F951FEFE1FEE43197F1F793
S113066000C000002F5F3F4F2A3031057CF36AE061
S113067070E00E94DC0470932A0160932901FFEF6B
S113068029EF80E0F15020408040E1F700C00000F5
S11306909FEFE9E6F8E19150E040F040E1F700C057
S11306A00000079BFECF8091780090917900909391
S11306B01E0180931D012FEF89EF90E021508040AF
S11306C09040E1F700C0000020E030E080E090E0DE
S11306D00EC04091780050917900840F951FEFE18E
S11306E0FEE43197F1F700C000002F5F3F4F2A303E
S11306F031057CF36AE070E00E94DC0470931E0113
S113070060931D0181E00E946C00FFEF29EF80E0FF
S1130710F15020408040E1F700C000008091780053
S11307209091790090932601809325019FEFE9EF42
S1130730F0E09150E040F040E1F700C0000020E01C
S113074030E080E090E00EC0409178005091790054
S1130750840F951FEFE1FEE43197F1F700C000002C
S11307602F5F3F4F2A3031057CF36AE070E00E942E
S1130770DC04709326016093250180E00E946C00E4
S1130780FFEF29EF80E0F15020408040E1F700C006
S1130790000080911D0190911E012091290130914A
S11307A02A01821B930B9C0122F422273327281B46
S11307B0390B3093240120932301809125019091DA
S11307C026012091270130912801821B930B9C0163
S11307D022F422273327281B390B30931C01209342
S11307E01B017894089580E00E9452000E947500D5
S11307F00E947B000E94810087E00E9463000E94A7
S11308000B04F8948AB180688AB90E9455028BB1AE
S113081080588BB9FCCF88E090E09093C50080931A
S1130820C400E1ECF0E080818861808308959091B8
S1130830C00095FFFCCF8093C60008950E949204E7
S113084088F09F5798F0B92F9927B751B0F0E1F08D
S1130850660F771F881F991F1AF0BA95C9F714C03D
S1130860B13091F00E94AC04B1E008950C94AC0452
S1130870672F782F8827B85F39F0B93FCCF3869576
S113088077956795B395D9F73EF4909580957095D3
S113089061957F4F8F4F9F4F0895E89409C097FB50
S11308A03EF490958095709561957F4F8F4F9F4F43
S11308B09923A9F0F92F96E9BB279395F695879587
S11308C077956795B795F111F8CFFAF4BB0F11F44A
S11308D060FF1BC06F5F7F4F8F4F9F4F16C08823F1
S11308E011F096E911C0772321F09EE8872F762F27
S11308F005C0662371F096E8862F70E060E02AF068
S11309009A95660F771F881FDAF7880F9695879553
S113091097F9089557FD9058440F551F59F05F3FBC
S113092071F04795880F97FB991F61F09F3F79F00D
S113093087950895121613061406551FF2CF46958F
S1130940F1DF08C0161617061806991FF1CF869511
S11309507105610508940895E894BB2766277727F5
S1130960CB0197F908950E94B80408F48FEF089515
S1130970990F0008550FAA0BE0E8FEEF16161706AC
S1130980E807F907C0F012161306E407F50798F014
S1130990621B730B840B950B39F40A2661F0232B2D
S11309A0242B252B21F408950A2609F4A140A695A9
S11309B08FEF811D811D089597FB072E16F4009477
S11309C007D077FD09D00E94FF0407FC05D03EF450
S11309D0909581959F4F0895709561957F4F0895E7
S11309E0A29FB001B39FC001A39F700D811D11246C
S11309F0911DB29F700D811D1124911D0895AA1B94
S1130A00BB1B51E107C0AA1FBB1FA617B70710F0F5
S1130A10A61BB70B881F991F5A95A9F78095909527
S10D0A20BC01CD010895F894FFCF46
S9030000FC
