S0200000696E7665727465645F70656E64756C756D5F73656E736F722E73726563E1
S11300000C943E000C945B000C945B000C945B001D
S11300100C945B000C945B000C945B000C945B00F0
S11300200C945B000C945B000C945B000C945B00E0
S11300300C945B000C945B000C945B000C945B00D0
S11300400C945B000C945B000C945B000C945B00C0
S11300500C945B000C945B000C945B000C945B00B0
S11300600C9412030C945B000C945B000C945B00E6
S11300700C945B000C945B000C945B0011241FBE79
S1130080CFEFD0E1DEBFCDBF11E0A0E0B1E0E6E705
S1130090FFE002C005900D92A031B107D9F721E02D
S11300A0A0E1B1E001C01D92A334B207E1F70E94C0
S11300B092050C94B9070C940000ECE7F0E09081F1
S11300C09F7390839081892B808380818064808357
S11300D0EAE7F0E08081806880830895EAE7F0E051
S11300E09081987F90839081892B80830895ECE799
S11300F0F0E09081987F90839081892B808308958C
S1130100EAE7F0E08081886080830895EAE7F0E020
S11301108081806280830895EAE7F0E080818064D2
S1130120808308951092120110921101109210010F
S11301300895CF93DF931F92CDB7DEB76091150179
S113014070911601809117019091180120E030E020
S11301504EEF52E40E941007882364F080E090E0A0
S1130160ACEFB2E48093150190931601A0931701AC
S1130170B0931801609115017091160180911701D7
S1130180909118010E942F0669839981809114012E
S1130190892B898389810E94B6050E9492000F9061
S11301A0DF91CF9108954F925F926F927F928F92D9
S11301B09F92AF92BF92CF92DF92EF92FF92CF9332
S11301C0DF9380912801909129019923FCF4809177
S11301D02601909127019923CCF4109229011092C1
S11301E028011092270110922601109219011092F1
S11301F01A0110921B0110921C0110921D01109201
S11302001E0110921F0110922001FDC120912801AE
S1130210309129018091260190912701821793073B
S11302200CF0F8C06091280170912901072E000C90
S1130230880B990B0E94600620910C0130910D01EE
S113024040910E0150910F010E9415076B017C0132
S1130250C0913501D091360120912E0130912F01AA
S11302608091240190912501820F931F99230CF40E
S1130270019695958795BE01681B790B80900801BE
S113028090900901A0900A01B0900B01072E000C78
S1130290880B990B0E946006A50194010E94150722
S11302A09B01AC01C701B6010E94BE0520911D014E
S11302B030911E0140911F01509120010E94BE0502
S11302C02B013C0160912E0170912F01809124013A
S11302D090912501681B790BC0900401D090050111
S11302E0E0900601F0900701072E000C880B990B93
S11302F00E946006A70196010E9415079B01AC01AC
S1130300C301B2010E94BE052091190130911A0166
S113031040911B0150911C010E94BE056093150180
S113032070931601809317019093180120912E0168
S113033030912F018091240190912501820F931F08
S113034099230CF4019695958795C81BD90BBE018A
S1130350DD0F880B990B0E946006A50194010E9491
S1130360150760931D0170931E0180931F019093E4
S1130370200120910001309101014091020150912E
S11303800301C701B6010E9415076B017C0160914E
S11303902E0170912F018091240190912501681BF9
S11303A0790B072E000C880B990B0E946006A7019D
S11303B096010E9415076093190170931A018093A6
S11303C01B0190931C01609115017091160180919D
S11303D017019091180120E030E0A9010E942A063B
S11303E08823A4F4109214018091150190911601B0
S11303F0A0911701B0911801B05880931501909302
S11304001601A0931701B0931801FBC080E88093F4
S11304101401F7C06091260170912701072E000C8A
S1130420880B990B0E94600620910C0130910D01FC
S113043040910E0150910F010E9415076B017C0140
S1130440C0913D01D0913E0120912C0130912D01AC
S11304508091220190912301820F931F99230CF420
S1130460019695958795BE01681B790B80900801CC
S113047090900901A0900A01B0900B01072E000C86
S1130480880B990B0E946006A50194010E94150730
S11304909B01AC01C701B6010E94BE0520911D015C
S11304A030911E0140911F01509120010E94BE0510
S11304B02B013C0160912C0170912D01809122014E
S11304C090912301681B790BC0900401D090050121
S11304D0E0900601F0900701072E000C880B990BA1
S11304E00E946006A70196010E9415079B01AC01BA
S11304F0C301B2010E94BE052091190130911A0175
S113050040911B0150911C010E94BE05609315018E
S113051070931601809317019093180120912C0178
S113052030912D018091220190912301820F931F1C
S113053099230CF4019695958795C81BD90BBE0198
S1130540DD0F880B990B0E946006A50194010E949F
S1130550150760931D0170931E0180931F019093F2
S1130560200120910001309101014091020150913C
S11305700301C701B6010E9415076B017C0160915C
S11305802C0170912D018091220190912301681B0F
S1130590790B072E000C880B990B0E946006A701AB
S11305A096010E9415076093190170931A018093B4
S11305B01B0190931C0160911501709116018091AB
S11305C017019091180120E030E0A9010E942A0649
S11305D08823ACF480E880931401809115019091F4
S11305E01601A0911701B0911801B058809315011C
S11305F090931601A0931701B093180102C01092B2
S113060014010E949900DF91CF91FF90EF90DF9049
S1130610CF90BF90AF909F908F907F906F905F909E
S11306204F9008951F920F920FB60F9211242F939B
S11306303F934F935F936F937F938F939F93AF9366
S1130640BF93EF93FF9380917800909179009093FA
S1130650310180933001809112018F5F80931201E8
S113066080911201823008F4AEC080911001909103
S11306701101039750F4809110019091110101969A
S113068090931101809310019EC0809121018F5F8E
S1130690809321018091130181114CC0209130017C
S11306A03091310180912A0190912B01820F931F87
S11306B090932B0180932A01809121018C3308F4BB
S11306C082C080912E0190912F01909325018093F7
S11306D0240120912A0130912B01A9E8B8E80E9455
S11306E0960796958795929582958F7089279F7026
S11306F0892790932F0180932E0180912E01909150
S11307002F012091350130913601821B930B909378
S113071029018093280181E00E94770081E0809381
S113072013011092210110922B0110922A010E94B0
S1130730D30049C0209130013091310180912A01C8
S113074090912B01820F931F90932B0180932A0188
S1130750809121018C33B8F180912C0190912D016D
S1130760909323018093220120912A0130912B013F
S1130770A9E8B8E80E949607969587959295829580
S11307808F7089279F70892790932D0180932C0166
S113079080912C0190912D0120913D0130913E01D9
S11307A0821B930B909327018093260180E00E9483
S11307B07700109213011092210110922B011092D4
S11307C02A010E94D300FF91EF91BF91AF919F91B5
S11307D08F917F916F915F914F913F912F910F90E6
S11307E00FBE0F901F901895079BFECF8091780045
S11307F09091790090933A01809339012FEF89EF1A
S113080090E0215080409040E1F700C0000020E0DB
S113081030E080E090E00EC0409178005091790083
S1130820840F951FEFE1FEE43197F1F700C000005B
S11308302F5F3F4F2A3031057CF36AE070E00E945D
S1130840820770933A016093390181E00E94770036
S1130850FFEF29EF80E0F15020408040E1F700C035
S113086000008091780090917900909340018093EA
S11308703F019FEFE9EFF0E09150E040F040E1F7F5
S113088000C0000020E030E080E090E00EC0409125
S1130890780050917900840F951FEFE1FEE43197C1
S11308A0F1F700C000002F5F3F4F2A3031057CF381
S11308B06AE070E00E9482077093400160933F01F8
S11308C0FFEF29EF80E0F15020408040E1F700C0C5
S11308D000009FEFE9E6F8E19150E040F040E1F7D5
S11308E000C00000079BFECF8091780090917900B2
S11308F090933801809337012FEF89EF90E02150D6
S113090080409040E1F700C0000020E030E080E04B
S113091090E00EC04091780050917900840F951FAB
S1130920EFE1FEE43197F1F700C000002F5F3F4F85
S11309302A3031057CF36AE070E00E9482077093EC
S113094038016093370180E00E947700FFEF29EFC0
S113095080E0F15020408040E1F700C00000809129
S113096078009091790090934201809341019FEF28
S1130970E9EFF0E09150E040F040E1F700C0000002
S113098020E030E080E090E00EC04091780050918B
S11309907900840F951FEFE1FEE43197F1F700C071
S11309A000002F5F3F4F2A3031057CF36AE070E08E
S11309B00E9482077093420160934101FFEF29EF87
S11309C080E0F15020408040E1F700C000009FEF3C
S11309D0E9E6F8E19150E040F040E1F700C00000A2
S11309E0079BFECF80917800909179009093360117
S11309F0809335012FEF89EF90E0215080409040A3
S1130A00E1F700C0000020E030E080E090E00EC09C
S1130A104091780050917900840F951FEFE1FEE436
S1130A203197F1F700C000002F5F3F4F2A303105A6
S1130A307CF36AE070E00E94820770933601609351
S1130A40350181E00E947700FFEF29EF80E0F1504B
S1130A5020408040E1F700C0000080917800909130
S1130A60790090933E0180933D019FEFE9EFF0E020
S1130A709150E040F040E1F700C0000020E030E099
S1130A8080E090E00EC04091780050917900840F8E
S1130A90951FEFE1FEE43197F1F700C000002F5FEE
S1130AA03F4F2A3031057CF36AE070E00E948207F0
S1130AB070933E0160933D0180E00E947700FFEF58
S1130AC029EF80E0F15020408040E1F700C00000B1
S1130AD0809135019091360120914101309142017C
S1130AE0821B930B9C0122F422273327281B390BEA
S1130AF030933C0120933B0180913D0190913E0154
S1130B0020913F0130914001821B930B9C0122F400
S1130B1022273327281B390B3093340120933301C8
S1130B207894089580E00E945D000E9480000E94F5
S1130B3086000E948C0087E00E946E000E94AA0535
S1130B40F8948AB180688AB90E94F4038BB1805802
S1130B508BB9FCCF88E090E09093C5008093C400EB
S1130B60E1ECF0E080818861808308959091C00079
S1130B7095FFFCCF8093C60008955058BB27AA2741
S1130B800E94D5050C94D6060E94C80638F00E942F
S1130B90CF0620F039F49F3F19F426F40C94C506CF
S1130BA00EF4E095E7FB0C94BF06E92F0E94E706DC
S1130BB058F3BA17620773078407950720F079F48E
S1130BC0A6F50C9409070EF4E0950B2EBA2FA02D70
S1130BD00B01B90190010C01CA01A0011124FF27E6
S1130BE0591B99F0593F50F4503E68F11A16F040E1
S1130BF0A22F232F342F4427585FF3CF46953795E0
S1130C002795A795F0405395C9F77EF41F16BA0BA4
S1130C10620B730B840BBAF09150A1F0FF0FBB1F52
S1130C20661F771F881FC2F70EC0BA0F621F731F9B
S1130C30841F48F4879577956795B795F7959E3FF8
S1130C4008F0B0CF9395880F08F09927EE0F979589
S1130C50879508950E949B0608F481E008950E94F8
S1130C60EF0688F09F5798F0B92F9927B751B0F045
S1130C70E1F0660F771F881F991F1AF0BA95C9F71C
S1130C8014C0B13091F00E940907B1E008950C94AA
S1130C900907672F782F8827B85F39F0B93FCCF35D
S1130CA0869577956795B395D9F73EF49095809599
S1130CB0709561957F4F8F4F9F4F0895E89409C0B9
S1130CC097FB3EF490958095709561957F4F8F4F7B
S1130CD09F4F9923A9F0F92F96E9BB279395F69591
S1130CE0879577956795B795F111F8CFFAF4BB0F0F
S1130CF011F460FF1BC06F5F7F4F8F4F9F4F16C073
S1130D00882311F096E911C0772321F09EE8872FFC
S1130D10762F05C0662371F096E8862F70E060E0B8
S1130D202AF09A95660F771F881FDAF7880F969531
S1130D30879597F90895990F0008550FAA0BE0E8D5
S1130D40FEEF16161706E807F907C0F01216130689
S1130D50E407F50798F0621B730B840B950B39F4C9
S1130D600A2661F0232B242B252B21F408950A262F
S1130D7009F4A140A6958FEF811D811D089597F96F
S1130D809F6780E870E060E008959FEF80EC08952D
S1130D9000240A9416161706180609060895002456
S1130DA00A9412161306140605060895092E0394D0
S1130DB0000C11F4882352F0BB0F40F4BF2B11F444
S1130DC060FF04C06F5F7F4F8F4F9F4F089557FDA3
S1130DD09058440F551F59F05F3F71F04795880FA5
S1130DE097FB991F61F09F3F79F08795089512163C
S1130DF013061406551FF2CF4695F1DF08C01616E8
S1130E0017061806991FF1CF869571056105089498
S1130E100895E894BB2766277727CB0197F90895AF
S1130E200E949B0608F48FEF08950E9428070C94F3
S1130E30D6060E94C80638F00E94CF0620F09523FB
S1130E4011F00C94BF060C94C50611240C940A07E7
S1130E500E94E70670F3959FC1F3950F50E0551F6C
S1130E60629FF001729FBB27F00DB11D639FAA27FB
S1130E70F00DB11DAA1F649F6627B00DA11D661F4A
S1130E80829F2227B00DA11D621F739FB00DA11D6B
S1130E90621F839FA00D611D221F749F3327A00D25
S1130EA0611D231F849F600D211D822F762F6A2FC1
S1130EB011249F5750409AF0F1F088234AF0EE0F26
S1130EC0FF1FBB1F661F771F881F91505040A9F753
S1130ED09E3F510580F00C94BF060C940A075F3FB7
S1130EE0E4F3983ED4F3869577956795B795F7958F
S1130EF0E7959F5FC1F7FE2B880F911D9695879507
S1130F0097F9089597FB072E16F4009407D077FD00
S1130F1009D00E94A50707FC05D03EF49095819561
S1130F209F4F0895709561957F4F0895A29FB001DA
S1130F30B39FC001A39F700D811D1124911DB29F09
S1130F40700D811D1124911D0895AA1BBB1B51E135
S1130F5007C0AA1FBB1FA617B70710F0A61BB70B25
S1130F60881F991F5A95A9F780959095BC01CD01CA
S1090F700895F894FFCF80
S1130F76CDCCCC3D17B7D139A69BC43B000040402D
S9030000FC
